:100000000C94B5170C94EE170C94EE170C94EE1795
:100010000C94EE170C94EE170C94EE170C94EE174C
:100020000C94EE170C94EE170C94EE170C94EE173C
:100030000C94EE170C9401300C94EE170C94EE1700
:100040000C94EF2A0C94EE170C94DBAC0C94EE1786
:100050000C9427890C94F1880C94EE170C94EE17ED
:100060000C94EE170C94EE170C94EE170C94EE17FC
:100070000C94EE170C94EE170C94EE170C94EE17EC
:100080000C94EE170C94EE170C94EE17084AD73B1D
:100090003BCE016E84BCBFFDC12F3D6C74319ABD57
:1000A00056833DDA3D00C77F11BED9E4BB4C3E917B
:1000B0006BAAAABE000000803F05A84CCDB2D44E6A
:1000C000B93836A9020C50B9918688083CA6AAAA6C
:1000D0002ABE000000803F004E414E494E4954590F
:1000E000494E46CDCCCC3D0AD7233C17B7D1387703
:1000F000CC2B329595E6241FB14F0A000020410019
:1001000000C84200401C4620BCBE4CCA1B0E5AAE62
:10011000C59D7441425300504C41004572723A20D3
:10012000454550524F4D20436F72727570740045B3
:1001300072723A20454550524F4D2043524300457C
:1001400072723A20454550524F4D2053697A6500EE
:100150004572723A20454550524F4D205665727394
:10016000696F6E005072696E742041626F727465BF
:1001700064004D32350050617573696E672E2E2E06
:10018000004D3234003F0049676E6F726500526562
:1001900073657400496E697469616C697A6520459C
:1001A0004550524F4D0046696C2E204469612E0027
:1001B0004520696E206D6D5E330020082046616326
:1001C00074002008204D6178002008204D696E00E1
:1001D0004F6666004F6E004175746F74656D7000F8
:1001E0004D696E2054726176656C2053706565644C
:1001F000004D696E2056656C6F63697479004D61BE
:10020000782040205370656564004D61782045205A
:10021000416363656C004D617820402041636365F4
:100220006C0054726176656C20416363656C0052AA
:1002300065747261637420416363656C004163633C
:10024000656C00402073746570732F6D6D004164A0
:1002500076616E6365642053657474696E677300BC
:100260003F0043616E63656C00496E6974004D34F4
:10027000323800496E697469616C697A6520454558
:1002800050524F4D0046696C616D656E7400546547
:100290006D70657261747572650053746570732F4B
:1002A0006D6D004A756E6374696F6E2044657600EB
:1002B000416363656C65726174696F6E004D61784E
:1002C00020537065656420286D6D2F732900536578
:1002D0007420486F6D65204F6666736574730043C4
:1002E0006F6E66696775726174696F6E00426564EE
:1002F000004E6F7A7A6C650046616E2053706565BA
:100300006400436F6E66696775726174696F6E0031
:10031000526573746F72652044656661756C7473A1
:10032000004C6F61642053657474696E6773005389
:10033000746F72652053657474696E6773005072D0
:100340006568656174202420436F6E6600416476A1
:10035000616E6365642053657474696E6773004DE4
:1003600061696E003F004261636B0053746F7000FF
:100370004D323200417474616368204D6564696177
:10038000004D3231005072696E742066726F6D20BC
:100390004D656469610052656C65617365204D65EA
:1003A00064696100436F6E66696775726174696F35
:1003B0006E0054656D7065726174757265004D6F85
:1003C00074696F6E00526573756D65205072696E49
:1003D000740054756E650053746F70205072696EAE
:1003E00074005061757365205072696E7400496EB7
:1003F000666F2053637265656E003F0053746172CF
:1004000074205072696E740043616E63656C0050B5
:1004100072696E740043616E6E6F7420656E7465F0
:1004200072207375626469723A200002202E2E00D9
:100430000152656672657368004D61696E00210046
:10044000486F74656E6420746F6F20636F6C640016
:100450004261636B0050726F63656564004D6F7637
:1004600065204578747275646572004D6F74696FAC
:100470006E0044697361626C6520537465707065C9
:100480007273004D3834004175746F20486F6D658C
:1004900000473238004D61696E00507265686561D1
:1004A0007420242042656400507265686561742080
:1004B0002420456E640054656D70657261747572B8
:1004C000650017011301436F6F6C646F776E005006
:1004D00072656865617420240046616E2053706502
:1004E000656400426564004E6F7A7A6C65004D6108
:1004F000696E00466C6F770046616E2053706565CB
:100500006400426564004E6F7A7A6C6500537065D2
:100510006564004D61696E006F70656E00545249EC
:10052000474745524544003A20007A5F6D696E00A6
:10053000795F6D696E00785F6D696E005265706FEE
:100540007274696E6720656E6473746F7020737463
:10055000617475730A0000000000000000000000D4
:1005600000005761726E696E673A20486F6D696E60
:10057000672042756D702044697669736F72203C04
:1005800020310A00020204000048430000484300F2
:100590000016430000A0400000A040000000400002
:1005A00000484300004843000016430000000000DC
:1005B0000000000000000053657474696E677320CA
:1005C00053746F72656400290A0020627974657340
:1005D0003B20637263200053657474696E677320F7
:1005E00053746F72656420280048617264636F649D
:1005F00065642044656661756C7420536574746924
:100600006E6773204C6F616465640020286D6D29EE
:100610000020460020420020480020204D31343583
:100620002053004D6174657269616C206865617466
:10063000757020706172616D657465727300202041
:100640004D3134392043203B20556E697473206945
:100650006E2043656C736975730A0054656D70652F
:1006600072617475726520556E697473002020473D
:100670003231203B004C696E65617220556E6974A1
:100680007300454550524F4D206461746173697A1F
:1006900065206572726F722E0A00202863616C6398
:1006A000756C6174656429210A0020213D20004594
:1006B0004550524F4D20435243206D69736D617414
:1006C0006368202D202873746F72656429200045AB
:1006D0004550524F4D20436F72727570740A00205E
:1006E00053697A653A2000496E6465783A2000299A
:1006F0000A002062797465733B20637263200020D6
:1007000073746F7265642073657474696E677320A7
:1007100072657472696576656420280000002F4454
:1007200000002F440000C84200401C460000A042C8
:100730000000A0420000C8430000C842B80B0000FF
:10074000B80B00006400000010270000204D61720B
:100750006C696E3D563838290A00454550524F4D58
:100760002076657273696F6E206D69736D61746355
:10077000682028454550524F4D3D0020436F756E0F
:100780007420583A004265640045310045006265B6
:1007900064002C2073797374656D2073746F7070AE
:1007A000656421204865617465725F49443A2000A0
:1007B0004572723A204D415854454D50004D4158B4
:1007C00054454D50207472696767657265640048CE
:1007D000656174696E67204661696C65640048658F
:1007E0006174696E67206661696C65640045727248
:1007F0003A204D494E54454D50004D494E54454DBB
:100800005020747269676765726564005448455288
:100810004D414C2052554E41574159005468657224
:100820006D616C2052756E6177617900202F002018
:1008300042403A0020403A000009121B242D363F66
:1008400048415A536C657E7719100B023D342F26B0
:100850005158434A757C676E323B2029161F040DA0
:100860007A7368615E574C452B2239300F061D1490
:10087000636A7178474E555C646D767F4049525B80
:100880002C253E3708011A137D746F6659504B4270
:10089000353C272E1118030A565F444D727B606960
:1008A0001E170C053A3328214F465D546B62797050
:1008B000070E151C232A31384148535A656C777E40
:1008C00009001B122D243F3658514A437C756E6730
:1008D0001019020B343D262F737A6168575E454C20
:1008E0003B3229201F160D046A6378714E475C5510
:1008F000222B3039060F141D252C373E0108131A00
:100900006D647F7649405B523C352E2718110A03EF
:10091000747D666F5059424B171E050C333A2128DF
:100920005F564D447B7269600E071C152A233831CF
:10093000464F545D626B707900002100240027004F
:100940002A0000002110422063308440A550C66078
:10095000E770088129914AA16BB18CC1ADD1CEE17C
:10096000EFF13112100273325222B5529442F772F3
:10097000D662399318837BB35AA3BDD39CC3FFF3CC
:10098000DEE36224433420040114E664C774A44403
:1009900085546AA54BB528850995EEE5CFF5ACC51C
:1009A0008DD55336722611163006D776F6669556D3
:1009B000B4465BB77AA719973887DFF7FEE79DD76C
:1009C000BCC7C448E5588668A77840086118022863
:1009D0002338CCC9EDD98EE9AFF9488969990AA9BC
:1009E0002BB9F55AD44AB77A966A711A500A333A33
:1009F000122AFDDBDCCBBFFB9EEB799B588B3BBB0C
:100A00001AABA66C877CE44CC55C222C033C600CC2
:100A1000411CAEED8FFDECCDCDDD2AAD0BBD688D5B
:100A2000499D977EB66ED55EF44E133E322E511E12
:100A3000700E9FFFBEEFDDDFFCCF1BBF3AAF599FAB
:100A4000788F8891A981CAB1EBA10CD12DC14EF14B
:100A50006FE18010A100C230E320045025404670B1
:100A60006760B9839893FBA3DAB33DC31CD37FE3DC
:100A70005EF3B1029012F322D23235421452776201
:100A80005672EAB5CBA5A89589856EF54FE52CD5AC
:100A90000DC5E234C324A014810466744764245451
:100AA0000544DBA7FAB79987B8975FE77EF71DC7BC
:100AB0003CD7D326F2369106B016576676761546A1
:100AC00034564CD96DC90EF92FE9C899E9898AB90C
:100AD000ABA94458654806782768C018E1088238F1
:100AE000A3287DCB5CDB3FEB1EFBF98BD89BBBAB1C
:100AF0009ABB754A545A376A167AF10AD01AB32A41
:100B0000923A2EFD0FED6CDD4DCDAABD8BADE89D6B
:100B1000C98D267C076C645C454CA23C832CE01C90
:100B2000C10C1FEF3EFF5DCF7CDF9BAFBABFD98FFB
:100B3000F89F176E367E554E745E932EB23ED10EE0
:100B4000F01E7C3C3E5E2B3D3F2F5B5D3B2C2A2202
:100B50005C00434F4D4D554E49434154494F4E0063
:100B600044525952554E004552524F525300494E2D
:100B7000464F004543484F004572726F72207772AE
:100B80006974696E6720746F20454550524F4D213E
:100B90000A00506C6561736520526573657400507E
:100BA00052494E5445522048414C54454400255327
:100BB0003A202553004B494C4C45442E200050729E
:100BC000696E7465722068616C7465642E206B694F
:100BD0006C6C28292063616C6C6564210A000065D7
:100BE00063686F3A004572726F723A0020440020C9
:100BF000204D323030205300202844697361626CEC
:100C00006564293A0046696C616D656E7420736590
:100C10007474696E67730020204D323031205800A3
:100C20004D617820416363656C65726174696F6EB4
:100C30002028756E6974732F7332290020204D327D
:100C400030332058004D61782066656564726174A8
:100C500065732028756E6974732F73290020520004
:100C600020204D323034205000416363656C657242
:100C70006174696F6E2028756E6974732F733229E1
:100C80002028503C7072696E742D616363656C3E00
:100C900020523C726574726163742D616363656C8C
:100CA0003E20543C74726176656C2D616363656CA3
:100CB0003E2900204A0020540020530020204D32BD
:100CC0003035204200416476616E636564202842BD
:100CD0003C6D696E5F7365676D656E745F74696D99
:100CE000655F75733E20533C6D696E5F6665656434
:100CF000726174653E20543C6D696E5F74726176FA
:100D0000656C5F66656564726174653E204A3C6A25
:100D1000756E635F6465763E2900204400204900BB
:100D200020204D333031205000486F74656E6420B0
:100D3000504944002E0A002E12142C112C0E2C2087
:100D40006E6F742064697361626C65642E205368F1
:100D50006172656420776974680020496E76616C01
:100D60006964206578747275646572200020746F00
:100D70006F206C6F6E6720657874727573696F6E23
:100D80002070726576656E7465640A0020636F6C0E
:100D90006420657874727573696F6E207072657601
:100DA000656E7465640A0047322F473320626164C0
:100DB00020706172616D65746572730A00536C65B1
:100DC00065702E2E2E00436C69636B20746F205269
:100DD0006573756D652E2E2E00616C736F20656EC8
:100DE00061626C6564290A004E6F204D6F76652E36
:100DF00000456E642066696C65206C6973740A0036
:100E0000426567696E2066696C65206C6973740A57
:100E1000004E6F206D656469610A00534420636170
:100E200072642072656C65617365640A00286E6F78
:100E30002066696C65290043757272656E74206660
:100E4000696C653A20004E6F7420534420707269BB
:100E50006E74696E670A005344207072696E74691B
:100E60006E67206279746520002E0A0044656C6507
:100E700074696F6E206661696C65642C2046696CCC
:100E8000653A200046696C652064656C657465642C
:100E90003A005072696E742074696D653A20000AD8
:100EA00053746174733A2046696C616D656E742089
:100EB000757365643A20002C204C6F6E67657374FF
:100EC000206A6F623A2000546F74616C2074696DFF
:100ED000653A200053746174733A20002C204661F7
:100EE000696C65643A20002C2046696E69736865F8
:100EF000643A20005072696E74733A200053746132
:100F000074733A20006F6B006F666600730B6E0B94
:100F1000670B600B520B44454255473A004D313147
:100F20003320530057616E68616F206933204F464C
:100F3000462E00434F4E4649475F4558504F525446
:100F4000004D4541545041434B00434F4F4C455297
:100F50005F54454D50455241545552450043484118
:100F60004D4245525F54454D5045524154555245AE
:100F700000424142595354455050494E4700415256
:100F80004353004D4F54494F4E5F4D4F444553001E
:100F9000544845524D414C5F50524F54454354497B
:100FA0004F4E00455854454E4445445F4D32300045
:100FB000435553544F4D5F4649524D574152455F3B
:100FC00055504C4F4144004C464E5F575249544592
:100FD000004C4F4E475F46494C454E414D45004100
:100FE00055544F5245504F52545F53445F535441F0
:100FF0005455530053445F5752495445005245508D
:10100000454154004D554C54495F564F4C554D4544
:10101000005344434152440050524F4D50545F538B
:101020005550504F525400484F53545F4143544918
:101030004F4E5F434F4D4D414E445300454D455239
:1010400047454E43595F5041525345520043415327
:10105000455F4C494748545F4252494748544E45C2
:10106000535300544F47474C455F4C4947485453EE
:1010700000534F4654574152455F504F5745520019
:101080004255494C445F50455243454E54004C45EF
:1010900056454C494E475F44415441005A5F5052B7
:1010A0004F42450052554E4F5554004155544F4CF8
:1010B0004556454C005052494E545F4A4F420050ED
:1010C000524F4752455353004155544F5245504F8C
:1010D00052545F54454D50004155544F5245504F66
:1010E00052545F504F5300564F4C554D4554524942
:1010F0004300454550524F4D0042494E4152595FC1
:1011000046494C455F5452414E5346455200534563
:101110005249414C5F584F4E5F584F464600464932
:10112000524D574152455F4E414D453A4D61726CAB
:10113000696E20322E312E322E3120284A616E20E7
:10114000203120323032342032333A31393A31359D
:101150002920534F555243455F434F44455F5552F5
:101160004C3A6769746875622E636F6D2F4D6172BA
:101170006C696E4669726D776172652F4D61726C34
:10118000696E2050524F544F434F4C5F5645525357
:10119000494F4E3A312E30204D414348494E455F2C
:1011A000545950453A57616E68616F206933204544
:1011B000585452554445525F434F554E543A31208E
:1011C000555549443A63656465326132662D343160
:1011D00061322D343734382D396231322D63353553
:1011E000633632663336376666002F2F004D313452
:1011F0003520533C696E6465783E206F7574206FAE
:10120000662072616E67652028302D31290A003F03
:101210004A206F7574206F662072616E67652028A2
:10122000302E303120746F20302E33290A002058A0
:10123000004F4646004F4E003B200020204D617875
:101240003A2000200020204D696E3A2000203B20EB
:101250000020204D323131205300250A0046523AF9
:101260000020466C6F773A200064697300656E0059
:1012700043290A0061626C656420286D696E2074E0
:10128000656D702000436F6C6420657874727564BE
:101290006573206172652000486F6D65202573209D
:1012A0004669727374004F6666736574732041708B
:1012B000706C696564004572723A20546F6F2066E5
:1012C00061722100546F6F206661722066726F6DCB
:1012D000207265666572656E636520706F696E74F5
:1012E0000A00454550524F4D204F4B0A004D3834AF
:1012F00000446F6E65207072696E74696E67206657
:10130000696C650A004D3737004D333100496E7600
:10131000616C69642065787472756465720A002076
:10132000204D323036205800486F6D65206F66665C
:10133000736574004361703A002569730025696D17
:1013400020256973002569682025696D202569734A
:1013500000256964202569682025696D2025697349
:101360000025697920256964202569682025696D33
:10137000202569730020573A00436F6F6C696E67D0
:101380002E2E2E0045312025530020573A0042656D
:101390006420436F6F6C696E672E2E2E0042656469
:1013A0002048656174696E672E2E2E002066616983
:1013B0006C656421204261642068656174657220F7
:1013C00069640A00504944204175746F74756E65F4
:1013D0000023646566696E652044454641554C545A
:1013E0005F004B6420004B6920004B70200020669A
:1013F000696E69736865642120507574207468652E
:10140000206C617374204B702C204B6920616E64DA
:10141000204B6420636F6E7374616E747320667208
:101420006F6D2062656C6F7720696E746F20436FFB
:101430006E66696775726174696F6E2E680A005016
:101440004944204175746F74756E6500206661694A
:101450006C6564212074696D656F75740A0050496C
:1014600044204175746F74756E6500206661696C07
:101470006564212054656D706572617475726520B4
:10148000746F6F20686967680A005049442041758D
:10149000746F74756E6500504944204379636C65C0
:1014A000730025532025692F256900204B643A20BD
:1014B00000204B693A2000204B703A200020436CFA
:1014C000617373696320504944200A002054753ABF
:1014D0002000204B753A2000206D61783A200020D2
:1014E0006D696E3A200020643A20002062696173C1
:1014F0003A200048656174696E672E2E2E002073B5
:10150000746172740A00504944204175746F747597
:101510006E6500206661696C6564212054656D709C
:101520006572617475726520746F6F206869676891
:101530000A00504944204175746F74756E650050FF
:101540004944204175746F74756E65004572723A36
:10155000207574663820666F6E74206E6F74206913
:101560006E697469616C697A65642E004572723ABD
:10157000207574663820666F6E74206E6F742069F3
:101580006E697469616C697A65642E004572723A9D
:10159000207574663820666F6E74206E6F742069D3
:1015A0006E697469616C697A65642E0020003A0086
:1015B0003A002568753A2530326875002530326862
:1015C000753A253032687500253032687527253028
:1015D00032687500256875642025303268753A25B3
:1015E000303268750042656400456E636C6F7375D8
:1015F00072650045002000250020202020202020AA
:10160000002020202000657272001FE020102010B2
:1016100020101020102020102010303008400480AE
:1016200003001FE03FF03FF03FF01FE01FE03FF0FE
:101630003FF03FF00FC0078003003FFFF03800701D
:1016400030FC3020FC102078102030102C00D02EE0
:1016500031D02F7BD02F7BD02E31D02C00D020301A
:101660001020781020FC1030FC303800703FFFF064
:101670003FFFF03800703186302387102787902F86
:1016800087D02F03D0203010207810207810203001
:10169000102F03D02F87D0278790238710318630D3
:1016A0003800703FFFF01FFFF81FFFF804104002E2
:1016B000082002082004104008208010410010413A
:1016C000000820800410400000001FFFF81FFFF8F2
:1016D000000C0F00FE07022503BB017FFE08FE0879
:1016E000FE05080806000040F0C8888898781005B4
:1016F0000808060000C0F88888888888F80505056D
:101700000600012030F8302005080806000020708F
:10171000F820202020E00509090600FF2070A8A875
:10172000B888887020070505070001D86C366CD88A
:101730000509090600FFF8A88888888888A8F805A0
:101740000A0A0600FE205050505088A8A88870034E
:10175000030306000340A040FFFFFFFFFFFFFFFF62
:10176000FFFFFFFFFFFFFFFFFFFFFFFFFFFF000087
:10177000000605FF010707060200808080808000C8
:1017800080030303060105A0A0A0050606060000CD
:1017900050F85050F8500509090600FF2070A8A025
:1017A0007028A87020050707060000C8C810204050
:1017B000989805070706000040A0A040A89068017F
:1017C00003030602058080800309090601FF20400B
:1017D000408080804040200309090601FF8040408E
:1017E00020202040408005070706000020A8702028
:1017F00070A8200505050600012020F8202002031E
:10180000030601FFC04080050101060003F8020243
:1018100002060100C0C005070706000008101020DE
:10182000404080050707060000708898A8C88870A7
:1018300003070706010040C040404040E00507079D
:10184000060000708808102040F805070706000011
:10185000F80810300888700507070600001030509F
:1018600090F81010050707060000F880F0080888B7
:1018700070050707060000304080F0888870050773
:1018800007060000F80810102020200507070600B2
:1018900000708888708888700507070600007088C7
:1018A0008878081060020505060100C0C000C0C0AD
:1018B0000206060601FFC0C000C040800305050601
:1018C00001012040804020050303060002F800F8D3
:1018D000030505060101804020408005070706003A
:1018E000007088102020002005070706000070887F
:1018F000B8A8B88070050707060000708888F888C7
:101900008888050707060000F04848704848F00539
:10191000070706000070888080808870050707062A
:101920000000F04848484848F0050707060000F85E
:101930008080F08080F8050707060000F88080F0BE
:101940008080800507070600007088808098887076
:10195000050707060000888888F888888803070735
:10196000060100E04040404040E005070706000057
:10197000381010101090600507070600008890A02E
:10198000C0A09088050707060000808080808080C6
:10199000F805070706000088D8A888888888050702
:1019A000070600008888C8A89888880507070600E9
:1019B0000070888888888870050707060000F0880E
:1019C00088F080808005070706000070888888A856
:1019D0009068050707060000F08888F0A090880549
:1019E00007070600007088807008887005070706E2
:1019F0000000F8202020202020050707060000888E
:101A00008888888888700507070600008888888885
:101A100050502005070706000088888888A8A8502D
:101A200005070706000088885020508888050707AA
:101A300006000088885020202020050707060000A7
:101A4000F80810204080F80309090601FFE08080B3
:101A50008080808080E005070706000080404020ED
:101A60001010080309090601FFE020202020202093
:101A700020E005030306000520508805010106004B
:101A8000FEF8030303060105804020050505060056
:101A90000070087888780507070600008080F088C5
:101AA0008888F005050506000070808088700507AD
:101AB000070600000808788888887805050506006C
:101AC000007088F08070050707060000304840E08D
:101AD0004040400507070600FE7088888878087037
:101AE0000507070600008080F088888888030707BC
:101AF0000601004000C0404040E00409090601FE24
:101B000010003010101010906005070706000080CC
:101B1000808890E09088030707060100C04040409D
:101B20004040E0050505060000D0A8A8A8A80505C6
:101B300005060000B0C88888880505050600007005
:101B4000888888700507070600FEF0888888F0807E
:101B5000800507070600FE7888888878080805054C
:101B600005060000B0C880808005050506000078E5
:101B7000807008F00507070600002020F8202020CC
:101B8000180505050600008888889868050505067B
:101B9000000088888850200505050600008888A870
:101BA000A850050505060000885020508805070745
:101BB0000600FE8888885020408005050506000044
:101BC000F8102040F80309090601FF20404040803A
:101BD000404040200109090602FF8080808080800B
:101BE0008080800309090601FF804040402040407A
:101BF000408005030306000248A890FF5344206379
:101C0000617264206F6B0A006F70656E526F6F7443
:101C1000206661696C65640A00766F6C756D652E6F
:101C2000696E6974206661696C65640A004E6F2094
:101C3000534420636172640A000A4D3234004D320D
:101C400033202573002E0A006F70656E206661696F
:101C50006C65642C2046696C653A200046696C65A9
:101C60002073656C65637465640A002053697A6546
:101C70003A200046696C65206F70656E65643A2095
:101C800000454E4420535542524F5554494E450A43
:101C9000002220706F73002220706172656E743AAA
:101CA0002200535542524F5554494E452043414C12
:101CB0004C207461726765743A22005375626361E7
:101CC0006C6C204F766572666C6F77004578636543
:101CD00065646564206D617820535542524F5554B8
:101CE000494E452064657074683A0057726974699A
:101CF0006E6720746F2066696C653A2000667265B5
:101D0000736800646F696E67002066696C653A20CD
:101D1000004E6F7720002F6175746F25632E67006A
:101D2000000000000000000000FF000000000000B4
:101D300000000000100003FFB800000000000000D9
:101D40000007BF807FFF3F00000000000000001F71
:101D5000BFFFFFFF7FE0000000000000007FBFFF2B
:101D6000FFFE7FF000000000000001FF3FFFFFFCCE
:101D7000FFF800000000000007FF7FFFFFFDFFFEEF
:101D80003C00000000001FFF7FFFFFFDFFFFFFC0C2
:101D9000000000007FFE7FFFFFFDFFFF81E00000ED
:101DA0000001FFFEFFFFFFFDFFFE00F80000000343
:101DB000FFFEFFFFFFFDFFFE00000000000FFFFE23
:101DC000FFFFFFFDFFFE00000000006FFFFEFFFFB2
:101DD000FFFDFFFF0000000001EFFFFEFFFFFFFD22
:101DE000FFFF0000000067CFFFFE7FFFFFFDFFFF4A
:101DF000000000077FDFFFFF7FFFFFFCFFFF000009
:101E00000007FFDFFFFF7FFFFFFEFFFF0000000373
:101E1000FFDFFFFF3FFFFFFEFFFF80000003FFCF5C
:101E2000FFFFBFFFFFFE7FFF80000001FFEFFFFF0E
:101E3000BFFFFFFF7FFFC0000001FFEFFFFF9FFF1D
:101E4000FFFF7FFFC0000001FFEFFFFFDFFFFFFF8D
:101E50007FFFC0000001FFE7FFFFDFFFFFFF3FFF45
:101E6000C0000001FFF7FFFFDFFFFFFFBFFFC00063
:101E70000041FFF3FFFFCFFFFFFFBFFF80000061C6
:101E8000FFF9FFFFEFFFFFFFBFFFA0000079FFFD9D
:101E9000FFFFEFFFFFFF3FFF3000087FFFFCFFFF6A
:101EA000EFFFFFFF7FFE70000C3FFFFE7FFFEFFFA5
:101EB000FFFC3FFCF8000F3FFFFF003FEFFFFFF18B
:101EC0008FF9FC0007FFFFFF3F8FE7FFFFC3E3FB36
:101ED000FE0007FFFFFE3FE3C0FFFE01F8F3FF0037
:101EE00003FFFFF81FF8000FF001FE07FF0003FFDC
:101EF000FFE00FFDC0000001FFEFFF0001FFFFC08A
:101F00000FFDFC000007FFE7FE0000FFFF8007FD5C
:101F1000FE00000FFFE3FC00007FFF0003FDFF0059
:101F2000001FFF83FC00003FFE0003F9FF00001FBD
:101F3000FE07F800001FFC0003FBFF80003FFC07CA
:101F4000F800001FF00003F1FFC0007FE00FF80071
:101F5000000FF00007F00FC000FF801FF00000032B
:101F6000C0000FF001C000FF801FE0000000000073
:101F70000000000000000000000000000000000061
:101F80000000000000000000000000000000000051
:101F90000000000000000000000000000000000041
:101FA0000000000007878781F01E078F03C07C00B8
:101FB000FF0007878781F01F078F03C07C01FF8028
:101FC00007878783F81F078F03C0FE03FFC00787BB
:101FD0008783F81F878F03C0FE07FFE00787878787
:101FE000BC1FC78F03C1EF07C3E0078787871C1F8C
:101FF000E78F03C1C70F81F0078787871C1FF78F03
:10200000FFC1C70F00F007CFCF8F1E1FFF8FFFC389
:10201000C78F00F003CFCF0E0E1FFF8FFFC3838F3C
:1020200000F003EFDF0FFE1EFF8F03C3FF8F00F0F2
:1020300001FFFE1FFF1E7F8F03C7FFCF81F001FC52
:10204000FE1FFF1E3F8F03C7FFC7C3E000FCFC1F3E
:10205000FF1E1F8F03C7FFC7FFE0007CF83E0F9EE7
:102060000F8F03CF83E3FFC00078783C079E0F8F6C
:1020700003CF01E1FF800038703C079E078F03CF3C
:1020800001E07E006D61726C696E66772E6F72671B
:1020900000322E312E322E31001FFFFFFFFFFFFFD7
:1020A000600000000001FF400000000000FF800011
:1020B000000000007F83CF00000C303F87FF8000CE
:1020C0000C301F867980000C000F8C30C7838C3059
:1020D000E78C30CFC7CC31F38C30DCECEC33B98CEF
:1020E00030D86C6C33198C30D06C0C33198C30D8E0
:1020F0006C0C33198C30DC6C0E3B198C30CF7C07A8
:102100009F198C30C77C038F19400000000000022B
:10211000600000000000061FFFFFFFFFFFF85C00EB
:102120005E016800540176004A0185004001980074
:102130003601AD002C01C7002201E50018010A019B
:102140000E01350104016A01FA00A901F000F7014E
:10215000E6005602DC00CA02D2005A03C8000C0492
:10216000BE00EA04B400FF05AA005807A000060953
:1021700096001C0B8C00AE0D8200CD1078008514EB
:102180006E00D7186400AE1D5A00E02250002C28C3
:102190004600442D3C00DE313200C8352800E838C6
:1021A0001E00453B1400F73C0A00203E00002020A2
:1021B000506C616E6E6572427566666572427974C6
:1021C00065733A20002046726565204D656D6F721B
:1021D000793A200020436F6D70696C65643A204A3B
:1021E000616E20203120323032340A00204C61737D
:1021F0007420557064617465643A20323032332D36
:1022000030352D3136207C20417574686F723A204C
:10221000285072696E744C6162732C2057616E682D
:10222000616F2069332F4D616B65722053656C655A
:102230006374205632290A004D61726C696E203237
:102240002E312E322E310A0020536F667477617260
:10225000652052657365740A002057617463686471
:102260006F672052657365740A002042726F776E43
:10227000206F75742052657365740A002045787468
:1022800065726E616C2052657365740A00506F77D9
:10229000657255700A0073746172740A00473238AF
:1022A0005859004D31303031006F6B006572726FDC
:1022B000722077726974696E6720746F2066696C2A
:1022C000650A00446F6E6520736176696E672066EB
:1022D000696C652E0A00456E6473746F7073002517
:1022E0005320256320256320256320256300205A81
:1022F0003A0020593A0020583A00656E6473746FB2
:102300007073206869743A200000002200250028BC
:10231000002B00020202020202020204040404046E
:102320000404040303030303030303010101010184
:10233000010101010204081020408001020408107C
:1023400020408001020408102040808040201008B6
:1023500004020124F404D9201BC40C5C0E9804C4AC
:10236000095F0265077101F405F900FB04B3004839
:10237000048700C10369005803550003034500BEEC
:10238000023A008402310053022A00290225000487
:10239000022000E4011C00C8011900AF01170098D9
:1023A000011400840113007101100061011000513B
:1023B000010E0043010D0036010B002B010B002024
:1023C000010B00150109000C01090003010800FBC5
:1023D000000800F3000800EB000700E4000600DE40
:1023E000000600D8000600D2000600CC000500C799
:1023F000000500C2000500BD000400B9000400B5DE
:10240000000400B1000400AD000400A9000400A510
:10241000000300A20003009F0004009B000300983B
:102420000003009500020093000300900003008D5C
:102430000002008B00030088000200860002008476
:10244000000300810002007F0002007D0002007B8B
:10245000000200790002007700010076000200749B
:1024600000020072000100710002006F0002006DA6
:102470000001006C0002006A0001006900020067B0
:1024800000010066000100650001006400020062B6
:1024900000010061000100600001005F0002005DBA
:1024A0000001005C0001005B0001005A00010059BE
:1024B00000010058000100570001005600010055BE
:1024C00000010054000100530000005300010052BD
:1024D00000010051000100500001004F0001004EBA
:1024E0000000004E0001004D0001004C0001004BB7
:1024F0000000004B0001004A0001004900010048B3
:1025000000000048000100470001004600000046AE
:1025100000010045000000450001004400010043A7
:1025200000000043000100420000004200010041A1
:1025300000000041000100400001003F0000003F9A
:102540000001003E0000003E0001003D0000003D93
:102550000001003C0000003C0000003C0001003B8A
:102560000000003B0001003A0000003A0001003981
:102570000000003900010038000000380000003879
:10258000000100370000003700010036000000366F
:102590000000003600010035000000350000003565
:1025A000000100340000003400000034000100335A
:1025B0000000003300000033000100320000003250
:1025C0000000003200010031000000310000003145
:1025D0000001003000000030000000300001002F3A
:1025E0000000002F0000002F0000002F0001002E2F
:1025F0000000002E0000002E0001002D0000002D24
:102600000000002D0000002D0001002C0000002C17
:102610000000002C0000002C0001002B0000002B0B
:102620000000002B0000002B0001002A0000002AFF
:102630000000002A0000002A0001002900000029F3
:1026400000000029000000290000002900010028E6
:1026500000000028000000280000002800000028DA
:1026600000010027000000270000002700000027CD
:1026700000000027000100260000002600000026C0
:1026800000000026000000260001002500000025B3
:1026900000000025000000250000002500000025A6
:1026A0000001002400000024000000240000002499
:1026B000000000240001002300000023000000238C
:1026C000000000230000002300000023000000237E
:1026D0000001002200000022000000220000002271
:1026E0000000002200000022000100210000002163
:1026F0000000002100000021000000210000002156
:102700000000002100010020000000200000002047
:102710000000002000000020000000200000002039
:10272000000000200001001F0000001F0000001F2B
:102730000000001F0000001F0000001F0000001F1D
:102740000001001E0000001E0000001E0000001E10
:1027500000000024F4D43050C38E20C2A24017825F
:102760008B7011127A910D816CD90AA861E108C7AA
:10277000586607615143061E4B5D05C145A7041A03
:10278000411104093D9803713931034036DB02657C
:10279000339102D4305402802E1D02632CEE017559
:1027A0002AC501B028A001102781018F2564012BC3
:1027B000244B01E0223401AC211F018D200D01804A
:1027C0001FFC00841EED00971DDF00B81CD200E640
:1027D0001BC600201BBC00641AB200B219A8000A74
:1027E00019A0006A189900D117910040178B00B505
:1027F00016840031167E00B31579003A157300C7B0
:10280000146F0058146A00EE1366008813630025E5
:10281000135E00C7125B006C12570015125400C102
:1028200011510070114F0021114B00D61049008D3D
:102830001047004610440002104200C00F400080C4
:102840000F3E00420F3C00060F3B00CB0E380093BA
:102850000E37005C0E3500270E3400F30D3200C138
:102860000D3100900D3000600D2E00320D2D000551
:102870000D2C00D90C2B00AE0C2900850C29005C16
:102880000C2700350C27000E0C2600E80B2400C492
:102890000B2400A00B23007D0B23005A0B210039D1
:1028A0000B2100180B2000F80A1F00D90A1E00BBDC
:1028B0000A1E009D0A1D00800A1D00630A1C0047B5
:1028C0000A1B002C0A1B00110A1A00F7091A00DD66
:1028D000091900C4091900AB091900920917007BF6
:1028E000091800630917004C091600360916002064
:1028F0000916000A091500F5081500E0081400CCB7
:10290000081400B8081400A4081400900813007DEF
:102910000812006B08130058081200460812003411
:10292000081100230811001208110001081100F01D
:10293000071000E0071000D0071000C0071000B01B
:10294000070F00A107100091070E0083070F007406
:10295000070F0065070E0057070E0049070E003BE2
:10296000070D002E070E0020070D0013070D0006AF
:10297000070D00F9060C00ED060D00E0060C00D472
:10298000060C00C8060C00BC060C00B0060C00A427
:10299000060B0099060C008D060B0082060B0077D3
:1029A000060B006C060B0061060A0057060B004C74
:1029B000060A0042060A0038060A002E060A00240B
:1029C000060A001A060A001006090007060A00FD9A
:1029D000050900F4050900EB050900E2050900D925
:1029E000050900D0050900C7050900BE050900B5A5
:1029F000050800AD050800A50509009C0508009420
:102A00000508008C050800840508007C0508007492
:102A10000508006C050700650508005D0507005600
:102A20000508004E05070047050700400508003867
:102A3000050700310507002A050700230507001CCC
:102A4000050600160507000F050700080506000229
:102A5000050700FB040600F5040700EE040600E885
:102A6000040600E2040700DB040600D5040600CFDC
:102A7000040600C9040600C3040600BD040600B72E
:102A8000040600B1040500AC040600A6040600A07C
:102A90000405009B04060095040500900406008AC6
:102AA00004050085040500800406007A040500750D
:102AB000040500700405006B040500660405006150
:102AC0000405005C04050057040500520405004D90
:102AD00004050048040500430405003E0404003AD0
:102AE00004050035040500300404002C040500270B
:102AF000040400230405001E0404001A0404001644
:102B0000040500110404000D040400090405000478
:102B100004040000040400FC030400F8030400F4AF
:102B2000030400F0030400EC030400E8030400E4E1
:102B3000030400E0030400DC030400D8030400D411
:102B4000030400D0030400CC030400C8030300C541
:102B50000303005D2E00006E23000013180000AF79
:102B60000E00003D0800006304000045020000273D
:102B70000100004D6F766520246D6D00302E3032DF
:102B800035004D6F766520302E316D6D004D6F76BE
:102B90006520316D6D004D6F76652031306D6D00B3
:102BA0004D6F76652041786973004D6F7665202AF8
:102BB000004D6F766520400020005072696E7420D1
:102BC00066726F6D204D65646961002000200020F1
:102BD000002000486F6D696E67204661696C65640E
:102BE00000FFFFFF43616E6E6F74206F70656E2093
:102BF0007375626469722000220A00556E6B6E6FF5
:102C0000776E20636F6D6D616E643A2022002045FF
:102C100000205A0020590020204D393220580053FE
:102C2000746570732070657220756E6974006275CA
:102C300073793A2070617573656420666F722069DC
:102C40006E7075740A00627573793A2070617573DD
:102C5000656420666F7220757365720A0062757311
:102C6000793A2070726F63657373696E670A004DFD
:102C70006564696120496E73657274656400000063
:102C800000010200090A0000000004030807000018
:102C900000000000000000000000000000004D31B6
:102CA00031322053687574646F776E0053544F50FF
:102CB0005045442E20005072696E74657220737402
:102CC0006F707065642064756520746F2065727222
:102CD0006F72732E20466978207468652065727261
:102CE0006F7220616E6420757365204D393939200B
:102CF000746F20726573746172742E202854656D30
:102D00007065726174757265206973207265736590
:102D1000742E205365742069742061667465722076
:102D200072657374617274696E67290A004E6F2050
:102D3000436865636B73756D2077697468206C698F
:102D40006E65206E756D6265722C204C6173742007
:102D50004C696E653A20004D3239004E6F20436851
:102D600065636B73756D2077697468206C696E6537
:102D7000206E756D6265722C204C617374204C69F5
:102D80006E653A2000636865636B73756D206D69CD
:102D9000736D617463682C204C617374204C696E90
:102DA000653A20004C696E65204E756D6265722033
:102DB0006973206E6F74204C617374204C696E656A
:102DC000204E756D6265722B312C204C617374201E
:102DD0004C696E653A20004D31313000536572699F
:102DE000616C20737461747573206D69736D6174A7
:102DF00063680A0053442072656164206572726FD3
:102E0000720A004B494C4C20627574746F6E2F70BF
:102E1000696E0A002121204B494C4C206361757377
:102E200065642062792000746F6F206D756368207F
:102E3000696E6163746976652074696D65202D2003
:102E400063757272656E7420636F6D6D616E643A46
:102E500020002121204B494C4C206361757365642F
:102E60002062792000DB0FC93F45BCDA3F8FB302F7
:102E700040FCF0274056946140FE4B9B4084A5D80F
:102E800040E0231841346A5641E859974164DBD544
:102E9000416E271742B4B75542CE1A9742C8AED5F5
:102EA00042B5885A43D40684BFA65FA7BF7443E0E7
:102EB000BF10B11AC01C2C58C0E8F697C0B849D64C
:102EC000C04E4E17C124D355C1802497C1A0B5D59B
:102ED000C1121A17C244AE55C2781797C26CACD54E
:102EE000C267885AC320746F6F206C6F6E6720654D
:102EF0007874727573696F6E2070726576656E7422
:102F000065640A0020636F6C642065787472757361
:102F1000696F6E2070726576656E7465640A006F05
:102F20006B0A00526573656E643A200020453A00D2
:102F3000205A3A0020593A00583A0057616E6861A9
:102F40006F2069332052656164792E005072696E7A
:102F500074696E672E2E2E005072696E7420506157
:102F600075736564000061CEA9D511241FBECFEF33
:102F7000D0E4DEBFCDBF84B78093BE1D14BE0FB6B4
:102F8000F894A89580916000886180936000109209
:102F900060000FBE12E0A0E0B1E0E8E6F4EC01E072
:102FA0000BBF02C007900D92AE34B107D9F72DE1E7
:102FB000AEE4B2E001C01D92AE3BB207E1F717E10B
:102FC000C4EBD7E104C02197FE010E949BDEC33B06
:102FD000D107C9F70E9455CF0C9428E20C94000049
:102FE000DC01680F791F90E080E02D91E92FFF2729
:102FF000E227EE0FFF1FEE5BF64F25913491982FDD
:103000008827822793276A177B0779F70895A0E11D
:10301000B0E0EDE0F8E10C94C4DE8C01DC01ED9150
:10302000FC910280F381E02DBE016F5F7F4F099517
:10303000882309F45DC08981807C91F56F8163707C
:1030400070E0762F6627770F770F8885B4E08B9F27
:10305000C0011124682B792B8985829586958695E8
:103060008370682B6F5F7F4F90E080E02A8523702C
:10307000220F3B8537FB332730F9232B3E813F70EE
:10308000230F3327331F2750310904C0660F771FE2
:10309000881F991F2A95D2F76096E4E00C94E0DE31
:1030A000803419F568856695669570E090E080E05B
:1030B000CB01772766272A85622B098510E0102F20
:1030C0000027012E000C220B330B602B712B822B5F
:1030D000932B6F5F7F4F8F4F9F4F4AE0660F771F95
:1030E000881F991F4A95D1F7D7CF8BE0F8018483C9
:1030F00060E070E0CB01D0CF0895FC01828108959B
:10310000CF93DF93C091BD1AD091BE1A81E0CE312A
:10311000D105E4F020E030E040E05FE36091B91ACF
:103120007091BA1A8091BB1A9091BC1A0E94EEDE7F
:103130000E9432E06C1B7D0B77FF03C07195619597
:10314000710981E0633071050CF080E0DF91CF916F
:103150000895FC0190E1AFE4B3E001900D929A95DF
:10316000E1F70895CF92DF92EF92FF928091820271
:10317000882309F457C0C0907E02D0907F02E0906F
:103180008002F090810220E030E0A901C701B60181
:103190000E9423DA882309F445C020E030E040E0B3
:1031A0005FE3C701B6010E9488DA9B01AC010E946F
:1031B00088DA2BED3FE049E450E40E9488DA9B0175
:1031C000AC0160E070E080E89FE30E94CADF6B0121
:1031D0007C01C0927502D0927602E0927702F09262
:1031E00078026091060170910701072E000C880B90
:1031F000990B0E9429DA2AE037ED43E25CE30E9452
:1032000088DAA70196010E9488DA60935E017093C4
:103210005F018093600190936101FF90EF90DF90D8
:10322000CF900895C12CD12C80E8E82E8FE3F82EA2
:10323000D0CFCF92DF92EF92FF92FC01C080D1807D
:10324000E280F38020E030E0A901C701B6010E94CE
:1032500023DA87FF68C0C701B601905820E030E04C
:1032600040E251E40E9488DA20E030E040EA50E495
:103270000E94EEDE20E030E040E251E40E94CADF2E
:103280000E9432E09B0160E22031F7E23F0730F01C
:10329000C90160E177E20E9474DE605D60935302D1
:1032A000283E83E0380708F445C0C90168EE73E0A2
:1032B0000E9474DECB016AE070E00E9474DE805DE3
:1032C0008093540280E22436310558F0C90164E647
:1032D00070E00E9474DECB016AE070E00E9474DE50
:1032E000805D8093550280E22A30310558F0EAE093
:1032F000F0E0C901BF010E9474DECB01BF010E9452
:1033000074DE805D80935602C9016AE070E00E941D
:1033100074DE805D8093570283E592E0FF90EF902A
:10332000DF90CF90089520E030E040E251E4C70103
:10333000B60198CF80E2C4CF8F929F92AF92BF9296
:10334000CF92DF92EF92FF92FC01C080D180E280A9
:10335000F38020E030E040E251E4C701B6010E9472
:1033600088DA20E030E040E251E40E9488DA4B0144
:103370005C0120E030E0A901C701B6010E9423DA18
:1033800020E030E040EA50E487FF04C020E030E075
:1033900040EA50ECC501B4010E94EEDE20E030E0CE
:1033A00040E251E40E94CADF0E9432E09B018BE2BE
:1033B00037FF05C022273327261B370B8DE280936A
:1033C0005202C90168EE73E00E9488DECB01EAE098
:1033D000F0E0BF010E9488DE805D80935302C90146
:1033E00064E670E00E9488DECB01BF010E9488DEA7
:1033F000805D80935402C901BF010E9488DE9C0158
:10340000CB01BF010E9488DE805D809355028EE271
:1034100080935602205D2093570282E592E0FF9050
:10342000EF90DF90CF90BF90AF909F908F900895D6
:103430004F925F926F927F928F929F92AF92BF92C4
:10344000CF92DF92EF92FF92FC01C080D180E280A8
:10345000F38020E030E040E251E4C701B6010E9471
:1034600088DA20E030E048EC52E40E9488DA4B0130
:103470005C0120E030E040E251ECC701B6010E945F
:1034800023DA181654F420E030E048EC52E4C70187
:10349000B6010E9414E187FD8AC020E030E0A90156
:1034A000C701B6010E9423DA87FF72C060E070E0B6
:1034B00080EA90ECA50194010E94EEDE20E030E06D
:1034C00040E251E40E94CADF0E9432E06B017C01BD
:1034D000F7FC63C020E137E240E050E00E9420DECC
:1034E000CA01B9012AE030E040E050E00E9420DE4D
:1034F000605D60935202C701B60128EE33E040E000
:1035000050E00E9420DE9AE0892E912CA12CB12C53
:10351000CA01B901A50194010E9420DE605D60939B
:103520005302C701B60124E630E040E050E00E94BB
:1035300020DECA01B901A50194010E9420DE605D70
:10354000609354028EE280935502C701B601A50133
:1035500094010E9420DE6B01CA01B901A50194010A
:103560000E9420DE605D60935602F0E3CF0EC092B1
:10357000570282E592E0FF90EF90DF90CF90BF90EE
:10358000AF909F908F907F906F905F904F90089535
:1035900060E070E080EA90E48DCFF094E094D09405
:1035A000C094C11CD11CE11CF11C6DE2A2CF20E033
:1035B00030E0A901C701B6010E9423DA87FF6BC082
:1035C00060E070E080EA90ECA50194010E94EEDEDC
:1035D00020E030E040E251E40E94CADF0E9432E085
:1035E0004B015C0120E030E0A901C701B6010E9457
:1035F00014E187FD0BC020E030E040E251E4C70158
:10360000B6010E9423DA60E287FD13C0B7FC48C010
:10361000C501B40128EE33E040E050E00E9420DE16
:10362000CA01B9012AE030E040E050E00E9420DE0B
:10363000605D60935302C501B40124E630E040E0D0
:1036400050E00E9420DE8AE0482E512C612C712C23
:10365000CA01B901A30192010E9420DE605D60935E
:1036600054028EE280935502C501B401A301920178
:103670000E9420DE6B01CA01B901A30192010E94E0
:1036800020DE605D6093560280E3C80EC092570250
:1036900083E592E070CF60E070E080EA90E494CF40
:1036A000B094A09490948094811C911CA11CB11C96
:1036B0006DE2BFCF24E6829FC001112481589F4F45
:1036C0006FEF70E00E9488DE262F81E3643609F0F8
:1036D00080E28093540290E22A3040F03AE0822F58
:1036E000632F0E945BDE0E945BDE905D909355022B
:1036F000822F6AE00E945BDE905D9093560285E225
:103700008093570284E592E00895609106017091DC
:103710000701072E000C880B990B0E9429DA2AE07A
:1037200037ED43E25CE30E9488DA20917502309124
:10373000760240917702509178020E9488DA609375
:103740005E0170935F018093600190936101089521
:1037500080916905811104C0809147058093B70568
:1037600008958091581C8823C1F081508093581C83
:10377000E8E8FAE1882351F08150990B2BE1289F6A
:10378000F001299FF00D1124E65BF44E8BE1ADE6CC
:10379000BAE101900D928A95E1F72091581C211110
:1037A00005C08091621C80648093621C81E090E07F
:1037B000A0E0B0E0211103C080E090E0DC01809344
:1037C000520590935305A0935405B093550510925C
:1037D0004B0581E08093620583E080934E0108955C
:1037E00080E793E090932705809326050895CF9373
:1037F000DF93EC01642F70E090E080E00E9429DA12
:1038000029EC38EC48EC5EE30E94CADF20E030E0AF
:1038100040E05FE30E94EEDE0E9437E06883DF91C4
:10382000CF91089570E090E080E00E9429DA29ECC1
:1038300038EC48EC5EE30E94CADF20E030E040E074
:103840005FE30E94EEDE0E9437E0862F33CFE091E7
:10385000690586E0E802F0011124EC5CFA4F8091E2
:10386000470590E0958384830895A4E0B0E0EBE3FE
:10387000FCE10C94C6DE0E9427DA69837A838B838D
:103880009C83CE010196D5DC2496E2E00C94E2DE26
:103890008F929F92AF92BF92CF92DF92EF92FF9260
:1038A0006B017C0120E030E0A9010E9423DA87FD52
:1038B000D6C06DEB77E386E095E3A70196010E9401
:1038C000EEDE6B017C0120E030E0A9010E9423DAEA
:1038D00087FFCAC0C701B601905820E030E040E23F
:1038E00051E40E9488DA20E030E048EC52E40E9483
:1038F00088DA20E030E040EA50E40E94EEDE20E08A
:1039000030E040E251E40E94CADF0E9432E06B01E5
:103910007C0160E280E4C81682E4D8068FE0E80605
:10392000F1048CF0C701B60120E432E44FE050E02E
:103930000E9420DECA01B9012AE030E040E050E0F8
:103940000E9420DE605D6093500260E280EAC8164B
:1039500086E8D80681E0E806F1048CF0C701B601DC
:1039600020EA36E841E050E00E9420DECA01B901B9
:103970002AE030E040E050E00E9420DE605D60938D
:10398000510260E280E1C81687E2D806E104F10442
:103990008CF0C701B60120E137E240E050E00E9420
:1039A00020DECA01B9012AE030E040E050E00E9488
:1039B00020DE605D6093520260E288EEC81683E00C
:1039C000D806E104F1048CF0C701B60128EE33E01B
:1039D00040E050E00E9420DECA01B9012AE030E058
:1039E00040E050E00E9420DE605D60935302C7011A
:1039F000B60124E630E040E050E00E9420DE8AE09C
:103A0000882E912CA12CB12CCA01B901A5019401D9
:103A10000E9420DE605D609354028EE28093550226
:103A2000C701B601A50194010E9420DE6B01CA0105
:103A3000B901A50194010E9420DE605D60935602E9
:103A400080E3C80EC092570280E592E0FF90EF90AD
:103A5000DF90CF90BF90AF909F908F9008956DEBC7
:103A600077E386E095EB29CF20E030E040E251E4B7
:103A7000C701B60136CFCF92DF92EF92FF92CF937C
:103A8000DF9300D000D0CDB7DEB76B017C0120E022
:103A900030E0A9010E9423DA87FD1AC06DEB77E3BD
:103AA00086E095E3A70196010E94EEDE69837A83A2
:103AB0008B839C83CE010196BCDB0F900F900F90FF
:103AC0000F90DF91CF91FF90EF90DF90CF9008950E
:103AD0006DEB77E386E095EBE5CF8F929F92AF9207
:103AE000BF92CF92DF92EF92FF926B017C0120E0B8
:103AF00030E0A9010E9423DA87FD93C06DEB77E3E4
:103B000086E095E3A70196010E94EEDE6B017C0141
:103B100020E030E040E251E40E9488DA20E030E02A
:103B20004AE754E40E9488DA4B015C0120E030E06F
:103B3000A901C701B6010E9423DA20E030E040EA83
:103B400050E487FF04C020E030E040EA50ECC501BB
:103B5000B4010E94EEDE20E030E040E251E40E9439
:103B6000CADF0E9432E06B017C01C114D104E10480
:103B7000F10409F45BC0F7FE59C0F094E094D094CE
:103B8000C094C11CD11CE11CF11C8DE28093520237
:103B9000C701B60128EE33E040E050E00E9420DE8D
:103BA0008AE0882E912CA12CB12CCA01B901A50163
:103BB00094010E9420DE605D609353028EE2809348
:103BC0005402C701B60124E630E040E050E00E9414
:103BD00020DECA01B901A50194010E9420DE605DCA
:103BE00060935502C701B601A50194010E9420DE31
:103BF0006B01CA01B901A50194010E9420DE605D3C
:103C00006093560280E3C80EC092570282E592E0AC
:103C1000FF90EF90DF90CF90BF90AF909F908F90EC
:103C200008956DEB77E386E095EB6CCF80E2AECF45
:103C3000CF93DF93EC01CB01BA010E9429DA20E097
:103C400030E048EC52E40E94CADF2FE632E143E85C
:103C50005AE30E94EEDE688379838A839B83DF9137
:103C6000CF910895CF93DF93EC01CB01BA010E946D
:103C700029DA20E030E048EC52E40E94CADF2FE667
:103C800032E143E85AE30E94EEDE688379838A8357
:103C90009B83DF91CF9108950E9429DA20E030E0E4
:103CA00048EC52E40E94CADF2FE632E143E85AE3CF
:103CB0000E94EEDEEDCDCF93DF93EC01CB01BA0194
:103CC0000E9427DA2AE037ED43E25DE30E94CADF73
:103CD0000E9437E0688379838A839B83DF91CF9149
:103CE00008950E9427DA2AE037ED43E25DE30E945F
:103CF000CADF0E9437E0B9CDCF93DF93EC01CB014F
:103D0000BA010E9429DA2AE037ED43E25DE30E941E
:103D1000CADF688379838A839B83DF91CF9108957B
:103D20000E9429DA2AE037ED43E25DE30E94CADF10
:103D3000A2CECF93DF93EC01CB01BA010E9429DA26
:103D4000688379838A839B83DF91CF9108950E9452
:103D500029DA91CECF92DF92EF92FF92CF93DF9349
:103D600000D000D0CDB7DEB70E9429DA20E030E0E5
:103D700048EC52E40E94CADF2FE632E143E85AE3FE
:103D80000E94EEDE6B017C0120E030E0A9010E9480
:103D900023DA2DEB37E346E055E387FF04C02DEB34
:103DA00037E346E055EBC701B6010E94EEDE6983BA
:103DB0007A838B839C83CE0101963ADB0F900F9020
:103DC0000F900F90DF91CF91FF90EF90DF90CF9009
:103DD0000895FC01518340830895CF93DF93EC0154
:103DE000CB01BA010E9429DA20E030E04AE754E42E
:103DF0000E94CADF27E137EB41ED58E30E94EEDE77
:103E0000688379838A839B83DF91CF9108950E9491
:103E100029DA20E030E04AE754E40E94CADF27E1D3
:103E200037EB41ED58E30E94EEDE57CE4F925F92A2
:103E30006F927F92AF92BF92CF92DF92EF92FF92FA
:103E40000F931F93CF93DF9300D000D0CDB7DEB791
:103E50008C0149835A836B837C835901C12CD12CFB
:103E60007601412C82E0582E612C712C49815A81B7
:103E70006B817C819E012F5F3F4FC8010E94D5B1AD
:103E8000882319F1F8018585A301920104C0220F4E
:103E9000331F441F551F8A95D2F7DA01C901C80E96
:103EA000D91EEA1EFB1E49815A816B817C8187895C
:103EB0008031F1F481E0483F5F4F61057105B0F258
:103EC000F501C082D182E282F3820F900F900F90B1
:103ED0000F90DF91CF911F910F91FF90EF90DF90A6
:103EE000CF90BF90AF907F906F905F904F9008956C
:103EF00081E0483F5F4F6F4F7F4008F4B7CFE0CF7E
:103F0000CF93DF93C091BD1AD091BE1A209729F1AB
:103F10006091B91A7091BA1A8091BB1A9091BC1A2B
:103F20000E9432E06E5F7F4F24976C177D07ACF4E0
:103F300070937403609373030E94AFAC605C73462C
:103F40008F4F9F4F60937503709376038093770331
:103F500090937803DF91CF9108951092750310929A
:103F600076031092770310927803F4CFCF93DF9308
:103F7000C091BD1AD091BE1A209729F16091B91A4B
:103F80007091BA1A8091BB1A9091BC1A0E9432E0CB
:103F90006E5F7F4F24976C177D07ACF470937403AA
:103FA000609373030E94AFAC605C73468F4F9F4F6A
:103FB00060937503709376038093770390937803EF
:103FC000DF91CF91089510927503109276031092AD
:103FD000770310927803F4CFC9CFCF93DF93EC012E
:103FE0008D810E945D8960E08B810E9420ACDF9111
:103FF000CF9108958F929F92AF92BF92DF92EF92EE
:10400000FF920F931F93CF93DF9300D000D000D087
:10401000CDB7DEB77C01D62E49015A01DEDF0E9402
:10402000BBAC1E821D828D2D80648983BA82AB82D7
:104030009C828D828E010F5F1F4FCE010696D801A4
:10404000E0E02D91F0E0EE0FFF1FE227E85CF74F74
:10405000E491A817B907A9F7EE0FE160EE835801C4
:1040600086E0A80EB11CF80181918F010E94518950
:104070000A151B05C1F7FCE0DF1202C00E94568939
:1040800010E00E945689F701868387FF04C01F3F16
:1040900011F01F5FF6CF26960FB6F894DEBF0FBE65
:1040A000CDBFDF91CF911F910F91FF90EF90DF90E7
:1040B000BF90AF909F908F90089561E0FC01838145
:1040C0000E9420AC8FEF0C9451890F931F93CF93D4
:1040D0008C0183DF0E94BBACC82F882369F08DEF71
:1040E0000E9451890E94BBACC82FC801E6DF8C2F0B
:1040F000CF911F910F91089582E1F8018483F5CF4C
:10410000B0E0A0E0E6E8F0E20C94BCDEEC016A016D
:104110007B014801590120E030E0A90167E36ADF33
:10412000A501980167E1CE0165DF81111DC08F8176
:10413000833039F089E0CC0CDD1CEE1CFF1C8A9525
:10414000D1F7A701960169E1CE0154DF11E0882380
:1041500019F010E087E08C83CE01AFDF812FCDB75F
:10416000DEB7ECE00C94D8DE89E08C8310E0F4CF6D
:10417000B0E0A0E0EEEBF0E20C94C1DE8C01D62EB4
:10418000EA0160E072E0CA010E94F0177C01DEBC27
:10419000CE019E5F0DB407FEFDCF28812EBD0DB46C
:1041A00007FEFDCF29812EBD2296C817D90791F7AA
:1041B0000DB407FEFDCF8F2D0E9451898E2D0E94D8
:1041C00051890E945689F80186838F71853051F09C
:1041D00083E18483C80171DF80E0CDB7DEB7E7E01B
:1041E0000C94DDDE81E0F9CF0F931F93CF93DF9323
:1041F000EC018B01F2DE0E94BBAC81110BC085E1AA
:104200008C8310E0CE0159DF812FDF91CF911F9178
:104210000F910895A8016CEFCE01AADF182F882313
:1042200071F3F0CF0F931F93CF93DF93EC018901CC
:104230008F81833039F089E0440F551F661F771F47
:104240008A95D1F79A01AB0168E1CE01D3DE8111E5
:1042500027C0A8016EEFCE018BDF182F8823A9F0AD
:104260000E94BBAC182F8823C1F020E030E0A901E8
:104270006DE0CE01BFDE882321F086E18C8310E063
:1042800004C00E9456898111F8CFCE0116DF812F1C
:10429000DF91CF911F910F91089587E18C83F5CF26
:1042A00086E0ECCF1F93CF93DF93EC0196DE20E006
:1042B00030E0A9016CE0CE019DDE11E0882319F009
:1042C00010E083E08C83CE01F8DE812FDF91CF9167
:1042D0001F9108951F93CF93DF93EC018F8183305B
:1042E00039F089E0440F551F661F771F8A95D1F773
:1042F0009A01AB0162E1CE017DDE11E0882319F065
:1043000010E085E08C83CE01D8DE812FDF91CF9144
:104310001F9108958F929F92AF92BF92CF92DF929A
:10432000FF920F931F93CF93DF93EC018B016A01F0
:104330000E94AFAC4B015C012CE2820E21E0921E88
:10434000A11CB11C0E9456898E838F3F61F40E948C
:10435000AFAC681979098A099B0997FDF3CF81E110
:104360008C8310E028C08E3F09F03FC0C601019742
:104370002FEF2EBDF8014FEF0DB407FEFDCF2EB588
:1043800021934EBD9F01201B310B28173907A0F345
:104390000DB407FEFDCF2EB5800F911FFC012083C9
:1043A0000E945689F82E0E945689B82E80912B01C2
:1043B000811110C011E0CE0180DE812FDF91CF91FD
:1043C0001F910F91FF90DF90CF90BF90AF909F9083
:1043D0008F900895B601C8010E94F0173F2D2B2D34
:1043E0008217930739F38BE1BBCF8FE0B9CF0F93DF
:1043F0001F93CF93DF93EC018B01EFDD40E052E0A0
:10440000B801CE0187DFDF91CF911F910F91089501
:10441000B0E0A0E0EEE0F2E20C94BEDEEC016A0156
:104420007B0159018F81833039F089E0CC0CDD1C90
:10443000EE1CFF1C8A95D1F713E004E0A70196015A
:1044400061E1CE01D7DD882369F00C83CE0135DE32
:104450001150A1F020E030E0A9016CE0CE01CADDEE
:104460001C82ECCF40E052E0B501CE0153DF88233F
:1044700069F3CDB7DEB7EAE00C94DADE80E0F9CF7D
:10448000B0E0A0E0E6E4F2E20C94BCDEEC01162F12
:104490001F821C824B830E94AFAC6B017C0120ED1C
:1044A000C20E27E0D21EE11CF11CA89561E08B81B1
:1044B0000E9420AC8B8190E0FC01ED5CFC4D2491CE
:1044C0008D5E9C4DFC018491882399F090E0880FCB
:1044D000991FFC01E85CF64FA591B491FC01E75FE0
:1044E000FC4D859194918FB7F894EC912E2B2C93E1
:1044F0008FBF249A279A2698259A81E00E945D8989
:1045000085E08D830E945D890AE08FEF0E945189CA
:104510000150D9F7A89520E030E0A90160E0CE0174
:1045200069DD8E83813079F00E94AFAC6C197D0912
:104530008E099F0997FDEFCF81E08C83CE01BDDD11
:104540001A8280E072C021E030E040E050E06BE38E
:10455000CE0150DD91E0813009F090E090932B0185
:10456000A8952AEA31E040E050E068E0CE0142DD63
:10457000853031F581E08F83A8958F81812C912C36
:104580005401823029F4812C912CA12C80E4B82E86
:1045900020E030E0A90167E3CE012CDDA501940104
:1045A00069E2CE0127DD8E838823F1F00E94AFAC53
:1045B0006C197D098E099F0997FDEACF8AE0BDCF6E
:1045C00004E00E9456898E830150D9F78A3A11F48B
:1045D00082E0D1CF0E94AFAC6C197D098E099F0992
:1045E00097FDBFCF82E0A9CF8F818230B9F420E060
:1045F00030E0A9016AE3CE01FDDC882311F088E0F8
:104600009CCF0E945689807C803C11F483E08F838C
:104610000E9456890E9456890E945689CE014DDD1E
:1046200081E08A83173030F41D83CDB7DEB7ECE02C
:104630000C94D8DE88E18C8384CF0F931F93CF93A3
:10464000DF93EC018B0120E030E0A90169E0D2DCCE
:10465000882351F080E18C83CE012FDD80E0DF9153
:10466000CF911F910F91089540E150E0B801CE0124
:1046700051DEF5CFEF92FF920F931F93CF937B0103
:104680008A01C2E48F3F09F0C4E580E20E94A87D60
:104690008C2F0E94A87D8AE30E94A87DF70160818B
:1046A00071818281938142E00E94D2A68CE298E0DF
:1046B0000E94F97DF801608171818281938142E0DD
:1046C0000E94D2A662E070E080E090E00E947CACA4
:1046D000CF911F910F91FF90EF9008950F9300914C
:1046E000F40221E0022725EF32E04CE050E0BC016B
:1046F00082EF92E00E946A7D0F9108950F930091DE
:10470000F40221E0022725EF32E044E050E0BC0152
:1047100082EF92E00E946A7D0F9108950F930091BD
:10472000F40221E0022725EF32E041E050E0BC0135
:1047300082EF92E00E946A7D0F9108950F9300919D
:10474000F40221E0022725EF32E041E050E0BC0115
:1047500082EF92E00E946A7D0F9108950F9300917D
:10476000F40221E0022725EF32E048E050E0BC01EE
:1047700082EF92E00E946A7D0F9108950F9300915D
:10478000F40221E0022725EF32E04CE050E0BC01CA
:1047900082EF92E00E946A7D0F9108950F9301E0ED
:1047A00025EF32E041E050E0BC0182EF92E00E9450
:1047B0006A7D0F9108950F9301E025EF32E042E00A
:1047C00050E0BC0182EF92E00E946A7D0F91089553
:1047D0000F93AB010091F40221E0022725EF32E0B4
:1047E000BC0182EF92E00E946A7D0F91089525EF4F
:1047F00032E04CE050E0BC0182EF92E00C94F8878C
:1048000025EF32E044E050E0BC0182EF92E00C94EE
:10481000F88725EF32E042E050E0BC0182EF92E001
:104820000C94F88725EF32E041E050E0BC0182EFC4
:1048300092E00C94F88725EF32E041E050E0BC01B3
:1048400082EF92E00C94F88725EF32E04CE050E0E4
:10485000BC0182EF92E00C94F887CF93C82FCB0174
:104860000E94F97D87E295E00E94F97D88E195E05C
:10487000CC2311F08DE195E00E944F88CF910895EF
:10488000B0E0A0E0E6E4F4E20C94C6DE20E24F8162
:1048900058856E818D810E9471A9E2E00C94E2DE60
:1048A000609147058FEF0C9462CC80914705682F8B
:1048B0000C9462CC6FEF809147050C9462CC6BE74F
:1048C0007EE482E00C94ACCC6DE77EE481E00C9455
:1048D000ACCC6FE77EE480E00C94ACCC63E57CE488
:1048E00083E00C94ACCC10924B050C9493B0809167
:1048F0004E01882341F06091CA027091CB0241E0E1
:1049000081E00C9411A90895CF938091D719C1E04B
:104910008823C9F08091D8199091D9194091CF1965
:104920005091D0196091D1197091D219DC01ED919B
:10493000FC910288F389E02D2FEC37E10995C82F0F
:10494000811104C0C0E08C2FCF9108954091D319FC
:104950005091D4196091D5197091D619411551050E
:1049600061057105B9F08091D8199091D919DC01D0
:10497000ED91FC910288F389E02D2FEC37E1099548
:10498000882301F31092D3191092D4191092D519DB
:104990001092D6191092D719D6CFCF92DF92EF92FC
:1049A000FF92CF936B017C01C42F8091CF1990911E
:1049B000D019A091D119B091D2198C159D05AE05D1
:1049C000BF0519F1A1DF811107C080E0CF91FF90F1
:1049D000EF90DF90CF9008958091D8199091D919D8
:1049E000DC01ED91FC910088F189E02D2FEC37E19D
:1049F000B701A6010995882341F3C092CF19D0923F
:104A0000D019E092D119F092D21981E0CC23F1F2C1
:104A10008093D719DBCFB0E0A0E0E1E1F5E20C94A0
:104A2000BCDEEC018B81811106C080E0CDB7DEB722
:104A3000ECE00C94D8DE09891A892B893C8904178B
:104A400015072607370788F34A015B01823031F4E6
:104A500088869986AA86BB8681E0E8CF8114910476
:104A6000A104B10449F4188619861A861B861C8293
:104A70001D821E821F82F0CF088519852A853B85FD
:104A8000E98DFA8D858590E00996B901A80141501C
:104A9000510961097109082E04C0769567955795EB
:104AA00047950A94D2F775016401E1E0CE1AD10866
:104AB000E108F10804C0F694E794D794C7948A9566
:104AC000D2F7C416D506E606F70620F0012B022B16
:104AD000032B11F58D899E89AF89B88D8C839D83B9
:104AE000AE83BF838E010C5F1F4FC114D104E1045C
:104AF000F10409F4ADCF4C815D816E817F81980115
:104B0000898D9A8D0E94D5B191E0C91AD108E1082A
:104B1000F1088111EACF89CFC41AD50AE60AF70A4B
:104B2000E1CFB0E0A0E0E7E9F5E20C94B6DEEC01FD
:104B30004B018A018B81811107C08FEF9FEFCDB7A9
:104B4000DEB7E2E10C94D2DE898180FFF6CF89895D
:104B50009A89AB89BC89488559856A857B85841B80
:104B6000950BA60BB70BA80170E060E084179507C2
:104B7000A607B70708F48C0168011E0124E0220E85
:104B8000311CC114D10409F4A9C0488559856A852E
:104B90007B855A0181E0B822898D9A8D2A013B01DB
:104BA00039E076946794579447943A95D1F72B81DE
:104BB000FC01223081F5628D738D848D958D640D9D
:104BC000751D861D971DE12C22E0F22EEA18FB08C8
:104BD000CE14DF0408F47601E114E2E0FE0671F47D
:104BE0004090CF195090D0196090D1197090D2197F
:104BF000641575058605970509F04DC040E0CDDECA
:104C0000882309F49ACFB5016153784EA701C401F6
:104C10000E94CBE152C0F480FA94F420A114B104B4
:104C200071F4F1100CC0452B462B472B51F58D89A3
:104C30009E89AF89B88D8C839D83AE83BF83E98DB8
:104C4000FA8D4C805D806E807F8022E0421A510890
:104C500061087108858504C0440C551C661C771CCE
:104C60008A95D2F786859785A089B189480E591E05
:104C70006A1E7B1EC301B2016F0D711D811D911D46
:104C8000A2CF4C815D816E817F8191010E94D5B15F
:104C90008111D5CF52CFA091D819B091D919ED91EA
:104CA000FC9111970088F189E02D9401AB01BC01C2
:104CB000CD010995882309F440CF8E0C9F1C88856F
:104CC0009985AA85BB858E0D9F1DA11DB11D888765
:104CD0009987AA87BB87CE18DF0853CFC8012FCF8B
:104CE0000F931F93CF93DF93FC012381222331F095
:104CF00080E0DF91CF911F910F9108958B01EC011E
:104D0000FB018789803139F582E08B831D8A1E8AF9
:104D10001F8A188E808D918DB0E0A0E025E0880F6D
:104D2000991FAA1FBB1F2A95D1F7898B9A8BAB8B32
:104D3000BC8B1A8F098F81E08983188619861A86A1
:104D40001B861C821D821E821F82188A1C861D865D
:104D50001E861F86CECF803259F683E08B83428D2C
:104D6000538D648D758D4D8B5E8B6F8B788F9E010F
:104D70002F5E3F4FC8015AD88111DBCFB9CFCF93F7
:104D8000DF93EC01462F41706C857D858E859F8574
:104D900004DE882351F0888920E2829FC00111241B
:104DA0008153984EDF91CF91089590E080E0FACF43
:104DB000CF93DF93EC018B81882341F1898187FFB9
:104DC00021C061E0CE01DBDFFC01892BF9F080819D
:104DD000853EE1F08B81823040F489899A89AB89E4
:104DE000BC89848F958FA68FB78F8D899E89938F6D
:104DF000828F8D899E89AF89B88DB58BA48B89816F
:104E00008F77898381DDDF91CF91089581E0888359
:104E100080E0F9CFCF93DF93EC01CADF1B82DF91F3
:104E2000CF910895CF93DF93EB01FC0123812111F2
:104E300004C080E0DF91CF9108952250223028F401
:104E40008FE28883198281E0F5CF60E098DF0097D8
:104E500081F3DC0160E080E09EE22D91203299F048
:104E6000883031F49E01260F311DF90190836F5F68
:104E70009E01260F311DAD0141505109FA014081BB
:104E8000F90140836F5F8F5F8B3039F7FE01E60FCA
:104E9000F11D1082D8CFACE0B0E0E1E5F7E20C9470
:104EA000B7DE5C01DC0159968D909C90F401818500
:104EB0009285A385B4859C01AD012F5F3F4F4F4F75
:104EC0005F4F29873A874B875C87D50114964D90B1
:104ED0005D906D907C9017974114510461047104AA
:104EE00009F459C0BFEF4B1A5B0A6B0A7B0A312CDD
:104EF000730162011D821E821F821886F401818562
:104F00009285A385B4852D813E814F8158852817D0
:104F100039074A075B0708F056C089859A85AB8533
:104F2000BC858C159D05AE05BF0550F482E0C82EEA
:104F3000D12CE12CF12C92E0492E512C612C712CBA
:104F40009E012F5F3F4FB701A601C4010E94D5B15A
:104F50008823C9F189819A81AB81BC81892B8A2BF5
:104F60008B2B01F1260137019FEF491A590A690A73
:104F7000790A2D813E814F8158852F5F3F4F4F4FDA
:104F80005F4F2D833E834F8358873FEFC31AD30A69
:104F9000E30AF30AB3CF40805180628073803324E8
:104FA0003394A6CFC414D504E604F70411F70FEF29
:104FB0001FEF2FEF3FE0B701A601C4010E945AB1D5
:104FC000782E811106C0712C872D2C96E1E10C946E
:104FD000D3DEF50144815581668177814115510504
:104FE0006105710539F097018601C4010E945AB12B
:104FF000882349F3D5011496CD92DD92ED92FC926F
:105000001797332051F0D701C6010196A11DB11D9C
:10501000F40180839183A283B383F5018589968906
:10502000A789B08D892B8A2B8B2B71F6C58AD68ADE
:10503000E78AF08E818180688183C6CF40E050E0AE
:10504000BA01E9CCFC0123812111E4CE0895A2E448
:10505000B0E0EDE2F8E20C94B6DE7C015B016A019F
:10506000322E19821C821C8E1F8E6115710511F45F
:1050700010E0A2C1DC0113968C918111F9CFFA01E5
:1050800080818F3209F044C0DB0113968C91139715
:1050900082508230D8F159966D917C91CE014C9618
:1050A0001FDE882329F38E01045E1F4FC6016C01A9
:1050B0000196F60120812F32D1F39E012F5F3F4FE1
:1050C0004901390130E2232E240122962FAE229786
:1050D00021962FAE21972FAE2EAE2DAE2CAE2BAE3D
:1050E0002AAE29AE28AE2FAA960190E047E0D9015A
:1050F0008D91882381F18F3271F18E3259F44A30CB
:1051000009F4B6CF98E04AE09D01F1CF8B01CECFF4
:105110008B01D3CFE2E4FBE02491222321F03196EE
:105120008213FACFA5CF491708F4A2CF813208F431
:105130009FCF8F3709F49CCF3FE9380F3A3108F4FD
:1051400020EEE7E3F0E0EC0FFD1FE90FF11D820F09
:1051500080839F5FD9CF8FA9803209F489CF6901FD
:10516000D9018C912F5F3F4F8F32C9F3882371F0A3
:105170000A151B0511F0C8014DDEC201681479043F
:1051800011F4CE014C9684014C019FCFF801818D22
:10519000928DD7015A969C938E935997C8014EDFF2
:1051A000C12CF80180859185A285B38541895289FA
:1051B0006389748984179507A607B70708F052C05A
:1051C00025E0B695A795979587952A95D1F7F82F5D
:1051D000FF70DF2ED80113968C91823008F448CFEF
:1051E00041E050E0BE016E5B7F4FC8019ADC019741
:1051F00009F03ECFF80180859185A285B3854F9651
:10520000A11DB11D80879187A287B387F0E2DF9E41
:10521000B00111246153784E6115710509F428CF4E
:10522000DB018C91882341F0853E09F04BC0CC20F6
:1052300029F0CC24C394B5CFC1100EC08091CF19F2
:105240009091D019A091D119B091D219F70184870A
:105250009587A687B787D08ADB018C918111E9CF2A
:10526000CC24C394832D8274823409F001CFCC20E6
:1052700009F4AEC0F701D08861E0C70180DD009776
:1052800009F4F6CE20E2DC011D922A95E9F72BE025
:10529000FE01F796DC0101900D922A95E1F721E2DB
:1052A00038E2FC01318B208B40E058E0578746877D
:1052B000338B228B318F208F578B468B25DB8111CF
:1052C0000AC0D6CE4BE050E0CE01C7960E94BEE1A8
:1052D000892B09F066CF2D2D30E0F901B5E0EE0FF6
:1052E000FF1FBA95E1F7DF01A153B84E1B968C91D1
:1052F000817121F0832D827109F007C1D701599680
:105300008D919C915A974091CF195091D0196091ED
:10531000D1197091D2191C964D935D936D937C9326
:105320001F975096DC925097E153F84E84889588E9
:10533000B12CA12C54019924882455968D929D92CC
:10534000AD92BC925897428D538D70E060E0482931
:1053500059296A297B2955964D935D936D937C93CA
:105360005897A5E0220F331FAA95E1F7D901A15361
:10537000B84E1B962C91287109F0B9C0848D958D7B
:10538000A68DB78DF701818B928BA38BB48B81E0B7
:105390008383832D8F70F701818314821582168297
:1053A0001782108611861286138611E034FE04C01F
:1053B000C7010E9452B2182FCE014C9643DECE0197
:1053C000019640DE812FCE5BDF4FE2E10C94D2DE0E
:1053D000D80113968C911397823009F449CE5196D7
:1053E0008D919D910D90BC91A02D803E9F4FAF411E
:1053F000B10508F03DCEC8014EDD882309F438CE52
:1054000083DA882309F434CED8015996ED91FC91C2
:105410005A9714968D909D90AD90BC901797B2E0DE
:105420008B1A9108A108B108858504C0880C991CC5
:10543000AA1CBB1C8A95D2F786859785A089B1895D
:10544000880E991EAA1EBB1E81E08093D7198092F8
:10545000CF199092D019A092D119B092D219EFEC35
:10546000F7E180E092E0DF019C011D922150304085
:10547000E1F7DD24D394D8015996ED91FC91848114
:10548000D816C0F48091D8199091D919DC01ED910A
:10549000FC910288F389E02D2FEC37E1B501A401DE
:1054A0004D0D511D611D711D0995882309F4E0CD35
:1054B000D394E1CF258580E092E0A0E0B0E004C085
:1054C000880F991FAA1FBB1F2A95D2F7F80141899F
:1054D000528963897489840F951FA61FB71F818B1A
:1054E000928BA38BB48B8FEC97E1D12CCBCE203158
:1054F00061F497012F5E3F4F0E94161F882329F009
:1055000084E0D70113968C9344CFD70113961C9255
:10551000AFCDA8E0B0E0EFE8FAE20C94C5DE182FBA
:105520006091BD1A7091BE1A072E000C880B990B62
:105530000E9429DA6D837E838F8398878091B91AC0
:105540009091BA1AA091BB1AB091BC1A89839A8320
:10555000AB83BC83AE014B5F5F4FBE016F5F7F4F7C
:1055600080E888D86091310570913205072E000CD3
:10557000880B990B0E9429DA6D837E838F8398872D
:1055800080912D0590912E05A0912F05B0913005A9
:1055900089839A83AB83BC83AE014B5F5F4FBE01AF
:1055A0006F5F7F4F8FEF66D8609133051F3F39F0F3
:1055B0008CE21802F0011124EB54F54E628570E084
:1055C00084E398E00E94EA876091330570E08FE2FF
:1055D00098E00E94EA872896E3E00C94E1DE0F93BE
:1055E0000FB70F9300916E000D7F00936E007894BB
:1055F0000F930BB70F930CB70F921F922F933F93FC
:105600004F935F936F937F938F939F93AF93BF93CA
:10561000EF93FF9311240E941E37FF91EF91BF91EA
:10562000AF919F918F917F916F915F914F913F913A
:105630002F911F900F900CBF0F910BBF0F91026025
:10564000F89400936E000F910FBF0F911895CF93B0
:10565000DF9310928E05C5EBDAE1198618860E9459
:10566000801F1A865D98C9E2D5E0198618860E94C7
:10567000B7661A865C98DF91CF910895B0E0A0E0FC
:10568000E4E4FBE20C94BCDEB4E2A0E06A2F70E03C
:10569000AB014B0F511D55954795411111C0E0E2EB
:1056A000F1E265917491072E000C880B990B0E9412
:1056B00029DACDB7DEB7ECE00C94D8DEB42FE8CF12
:1056C000A41711F0B41303C0ECEAF1E2EACF9A0197
:1056D00021503109220F331F220F331FF901E25EDF
:1056E000FE4DE590F490F901EE5DFE4DC591D4912B
:1056F0008E159F0518F3A42FC817D90708F4C6CF35
:10570000F901E05EFE4D05911491F901EC5DFE4D4D
:10571000C590D4908E199F09BC0190E080E00E9452
:1057200027DA4B015C01B601601B710B072E000CE0
:10573000880B990B0E9429DA9B01AC01C501B401C9
:105740000E9488DA4B015C01CE19DF09BE0190E0AE
:1057500080E00E9427DA9B01AC01C501B4010E94E0
:10576000CADF6B017C01B801012E000C880B990B7C
:105770000E9429DA9B01AC01C701B6010E94EEDE4E
:1057800098CFEF92FF920F931F93CF93DF93C82F81
:105790007B018A0180919A05833090F00E940980F4
:1057A000C7010E94F97D82E997E00E94F97DCF3F11
:1057B00041F58EE897E00E94F97D8AE00E94A87D7D
:1057C00046DFA89580915F03811138C081E0809306
:1057D0005F0382E080939A053ADFD5E1D15019F159
:1057E000A895149A69E170E080E090E00E947CAC9A
:1057F000149860E570E080E090E00E947CACA89591
:10580000EDCFC7FDDACF8CE897E00E94F97D6C2FD1
:105810000C2E000C770B880B990B0E9434A68AE0A3
:105820000E94A87DCACF149A65E877E0CF3F11F0B7
:1058300069E877E040E0C8010E945488CDB7DEB740
:10584000E6E00C94DEDEB0E0A0E0E9E2FCE20C94DD
:10585000B7DEEC015B014A01322EFA014080518033
:1058600062807380A30192016D817E818F81988512
:105870000E9423DA8823A1F04D825E826F827886AF
:105880007724739420E030E0A901F40160817181F4
:10589000828193810E9414E118160CF0712C7C8295
:1058A0008C818230A1F0833009F448C08130A9F5A1
:1058B0002D813E814F815885F50160817181828102
:1058C00093810E9423DA87FD28C082E08C83F50152
:1058D00020813181428153816D817E818F819885C4
:1058E0000E94EDDE2B013C010E94AFAC4B015C013C
:1058F000A7019601C301B2010E9423DA181694F0A1
:105900009801A8EEB3E00E944CDE860E971EA81EFA
:10591000B91E88829982AA82BB82CDB7DEB7E1E147
:105920000C94D3DE88819981AA81BB81881A990A57
:10593000AA0ABB0AB7FCF1CF83E08C834CE058E0A5
:105940006CE178E0832D1DDFE8CF40EB57E06DEB95
:1059500077E017CFCF93DF93A8958091B71A9091F6
:10596000B81A0E944FA66093B91A7093BA1A80931E
:10597000BB1A9093BC1A80912B0590912C057EDE6A
:1059800060932D0570932E0580932F05909330051D
:10599000C091B71AD091B81A8091470190914801EF
:1059A000C817D90710F480E0D0DF8091BD1A90911C
:1059B000BE1A181619066CF48091450190914601A3
:1059C0008C179D0730F44DEE57E06AEF77E080E0EA
:1059D000D8DE209113053091140580912B0590910C
:1059E0002C058217930710F48FEFAFDF80913105FC
:1059F00090913205181619068CF4209143013091CC
:105A0000440180912B0590912C052817390730F41B
:105A10004DEE57E06AEF77E08FEFB3DEDF91CF9185
:105A20000895A4E1B0E0E7E1FDE20C94B8DE8091D6
:105A30009A05811105C0A8956496E0E10C94D4DE26
:105A400080916E038111F8CF81E080936E03809185
:105A50008A02811103C010926E03EECF7BDF109299
:105A60008A020E94AFAC6D837E838F83988760919A
:105A70004B0170914C01072E000C880B990B0E9472
:105A800029DA9B01AC016091B91A7091BA1A809120
:105A9000BB1A9091BC1A0E9414E1181614F480E00D
:105AA00054DF6091BD1A7091BE1A072E000C880B4E
:105AB000990B0E9429DA69837A838B839C83C12C9A
:105AC000D12C30E8E32E30E4F32E08E210E020E0A1
:105AD000AE014F5F5F4F69EB7AE183EA9AE1B3DE93
